:100000000C94E1000C9409010C9409010C94090171
:100010000C9409010C9409010C9409010C94090138
:100020000C9409010C9409010C94AC020C94150376
:100030000C9409010C9409010C9409010C94090118
:100040000C9409010C9409010C9409010C94090108
:100050000C9409010C9409010C9409010C94750687
:100060000C9409010C9409010C9409010C940901E8
:100070000C9409010C9409010C9409010C940901D8
:100080000C9409010C9409010C9409010C940901C8
:100090000C9409010C9409010C9409010C940901B8
:1000A0000C9409010C9409010C9409013D074007C7
:1000B0002F073307370761076107610744074807C0
:1000C0004C075207560761075C0707060504010045
:1000D000080A0B0C0D0900000000240027002A006C
:1000E0002D003000080B000202020100090400008C
:1000F0000102020000052400100105240101010491
:1001000024020605240600010705810310004009AA
:10011000040100020A000000070502024000000777
:100120000583024000000403090412010002EF02EB
:1001300001409A230C8000010102030141646166C1
:100140007275697400466561746865722033327532
:1001500034000000000200090F0000030401000C3D
:10016000000000000000000000000000000000008F
:1001700000040802011040804010204080408008A8
:100180000204018040201002011080102040402015
:1001900000000000250028002B002E003100040480
:1001A0000404040304050202020204030202020220
:1001B0000606060606060404020202040400410ABA
:1001C000310A11241FBECFEFDAE0DEBFCDBF11E050
:1001D000A0E0B1E0EAEFFDE102C005900D92A2358A
:1001E000B107D9F721E0A2E5B1E001C01D92AA3D17
:1001F000B207E1F710E0C0EED0E004C02197FE01A5
:100200000E94B80DCF3DD107C9F70E94B90A0C94DE
:10021000F00E0C94000040915D0150915E01209120
:100220005B0130915C0142175307B4F49091E800F0
:100230009570E1F39091E80092FD19C08093F10070
:1002400080915D0190915E0101968F739927892BB2
:1002500019F48EEF8093E80080915D0190915E012A
:10026000019690935E0180935D0181E0089580E0A6
:100270000895CF92DF92EF92FF920F931F93CF9347
:10028000DF931F92CDB7DEB7182F062FE42E862FEF
:10029000880F8E5F99830E940B0183E00E940B01FF
:1002A000F12EC12E9981D92E8C2D8F19801798F49B
:1002B000F601E7FE02C0849101C080810E940B011B
:1002C000182F80E00E940B018123FFEFCF1ADF0A75
:1002D0008111EACF01C081E00F90DF91CF911F9192
:1002E0000F91FF90EF90DF90CF900895DF92EF9203
:1002F000FF920F931F93CF93DF93D82E8A017B0138
:10030000E40EF51EEB01CE15DF0571F0D7FE03C03C
:10031000FE01849101C088810E940B012196811108
:10032000F2CF8FEF9FEF01C0C801DF91CF911F91F6
:100330000F91FF90EF90DF900895CF92DF92EF92B0
:10034000FF920F931F93CF93DF936C017A018B0180
:10035000C0E0D0E0CE15DF0589F0D8016D918D01A8
:10036000D601ED91FC910190F081E02DC601099537
:10037000892B11F47E0102C02196ECCFC701DF91D9
:10038000CF911F910F91FF90EF90DF90CF90089544
:10039000CF93DF931F92CDB7DEB76983DC01ED9178
:1003A000FC910280F381E02D41E050E0BE016F5FDF
:1003B0007F4F09950F90DF91CF91089583E080934F
:1003C000E9008091F200882319F08AE38093E80025
:1003D0000895FC018485958597FD0BC09FB7F8941F
:1003E00082E08093E9008091F2009FBF90E0019647
:1003F00008959FB7F89482E08093E9008091F2001D
:100400009FBF90E00895089580E090E008958231C4
:1004100008F08251E82FF0E0E653FF4FE49180911D
:100420007B00E3FB222720F930E095E0220F331F09
:100430009A95E1F78F7D282B20937B00E770E0648D
:10044000E0937C0080917A00806480937A008091B0
:100450007A0086FDFCCF809178002091790090E0B1
:10046000922B08950E94EB0E0F931F93CF93DF936F
:100470001F92CDB7DEB782E0898342E450E064EE9C
:1004800070E080E80E9476010E941D0ADC0112964D
:100490000D911C9113970115110569F0D801ED918B
:1004A000FC910280F381E02DBE016F5F7F4FC80198
:1004B000099597FF07C089810F90DF91CF911F9118
:1004C0000F910895F80100851185E5CF0E940C0A6F
:1004D00090E008950F931F93CF93DF931F92CDB7B2
:1004E000DEB78C01FC018485958597FF0EC0CE0197
:1004F00001960E94E309019719F4298130E002C0B6
:100500002FEF3FEFF80135872487F8018485958523
:100510000F90DF91CF911F910F910895CF93DF93AB
:100520001F92CDB7DEB7FC018485958597FD05C088
:100530002FEF3FEF358724870BC0CE0101960E9435
:10054000E309019719F4898190E002C08FEF9FEFD2
:100550000F90DF91CF9108951F920F920FB60F92D7
:1005600011248F939F938091E1009091E100937FFC
:100570009093E10083FF0FC01092E90091E0909307
:10058000EB001092EC0092E39093ED001092640166
:1005900098E09093F00082FF1CC093E09093E900F4
:1005A0009091F200992319F09AE39093E8009091CA
:1005B0005F01992329F090915F01915090935F0121
:1005C00090916301992329F0909163019150909348
:1005D000630184FF10C08091E2008E7E8160809371
:1005E000E2008091E1008F7E8093E10080916101C3
:1005F0008E7E806111C080FF11C08091E2008E7EEE
:1006000080618093E2008091E1008E7E8093E10022
:10061000809161018E7E8160809361019F918F91B5
:100620000F900FBE0F901F9018951F920F920FB64C
:100630000F921124CF92DF92EF92FF920F931F93AC
:100640002F933F934F935F936F937F938F939F93DA
:10065000AF93BF93EF93FF93CF93DF93CDB7DEB705
:100660006C97DEBFCDBF1092E9008091E80083FF58
:10067000FFC1FE017596DE2ECF2E88E08E0F8E17FD
:1006800029F09091F10090833196F9CF84E6809320
:10069000630182EF8093E8008D8987FF05C0909108
:1006A000E80090FFFCCF03C09EEF9093E800982FE6
:1006B000907609F0C5C09E892F89188D91110CC0C4
:1006C000803829F4809162018093F10002C0109279
:1006D000F1001092F1004FC1422F50E0512B9130A8
:1006E00051F4811148C14130510509F044C1809154
:1006F00062018D7F0BC0933061F481113CC14130A8
:10070000510509F038C180916201826080936201D5
:1007100032C1953041F48091E80080FFFCCF206821
:100720002093E30028C1963009F05EC0EB8CFC8C6E
:100730001092E90010925E0110925D01123091F565
:1007400010925C0110925B010E94340299E0BE019C
:100750006F5F7F4FDB01E92F1D92EA95E9F79983DF
:100760001A8391E09E8390EA98879AEF9987209167
:100770005D0130915E01275F3F4F3C832B838D836A
:100780001092E90010925E0110925D01F0925C01FE
:10079000E0925B0149E050E080E00E9476010E9417
:1007A0003402E9C0F0925C01E0925B010E941D0AF4
:1007B000DC011296ED90FC901397E114F10409F41A
:1007C000C7C0D701ED91FC910480F581E02D6D2D1E
:1007D0007C2DC7010995009719F00CF0CCC0CFC053
:1007E000F701E084F184E9CF973009F4C8C098306C
:1007F00021F481E08093F100BEC0993009F0BBC0C4
:10080000837009F0BCC0E3E1F1E081E021E036E370
:100810009081992361F08093E9002093EB009191FE
:100820009093EC003093ED008F5F873089F78EE76F
:100830008093EA001092EA008F89809364019BC044
:100840008B8D9C8D1092E90010925E0110925D01DB
:1008500090935C0180935B01898D81115FC08E89CB
:100860009D89913A59F4813209F089C047E050E0FE
:1008700064E071E080E00E9476017DC0913209F071
:100880007EC0833289F4888D90E0982F88272F8945
:10089000822BA0E0B0E08093000190930101A0932F
:1008A0000201B093030167C08032B1F48091E80087
:1008B00082FFFCCFE4E0F1E087E08E0F8E1729F095
:1008C0009091F10090833196F9CF84E68093630193
:1008D0008BEF8093E80006C0823209F04CC08F890C
:1008E00080930B0180916001882319F0EEEFFAE00C
:1008F00002C0E0E0F8E08091040190910501A09130
:100900000601B0910701803B9440A105B10509F0B3
:100910007AC080910B0180FF92C075C00E941D0AB1
:10092000DC0112960D911C9113970115110539F1F7
:10093000D801ED91FC910190F081E02D6D2D7C2D81
:10094000C8010995811117C0F80100851185EDCF07
:10095000113009F44EC0133091F48F89882309F4C3
:1009600045C0823081F440E86CE085E491E00E946B
:100970003901882321F08EEF8093E80079C081E26D
:100980008093EB0075C0813029F440E868E08CE387
:1009900091E0EDCF833099F70E941D0ADC01129699
:1009A000ED90FC9013978E010F5F1F4F6801E114CB
:1009B000F10479F0D701ED91FC910680F781E02DEB
:1009C000B801C7010995080F111DF701E084F184F2
:1009D000EECFD8011C92F60101900020E9F7319783
:1009E000BF016C197D0940E0C601C1CF66E271E02C
:1009F00002C06AE271E06115710509F2FB014491E0
:100A000050E080E838CF0FB6F894A8958091600048
:100A1000886180936000109260000FBEA895EE3F41
:100A20002AE0F20739F08091FE0A9091FF0A918343
:100A30008083A1CF1092FF0A1092FE0A9CCFEE3F56
:100A40008AE0F80731F0808191819093FF0A8093CA
:100A5000FE0A87E797E7918380839BE088E10FB6E2
:100A6000F894A895809360000FBE9093600083CFA8
:100A70006C960FB6F894DEBF0FBECDBFDF91CF915D
:100A8000FF91EF91BF91AF919F918F917F916F9166
:100A90005F914F913F912F911F910F91FF90EF9098
:100AA000DF90CF900F900FBE0F901F901895CF93AF
:100AB000DF9390E0FC01EF58FE4F2491FC01E256D9
:100AC000FE4F8491882361F190E0880F991FFC010B
:100AD000EA52FF4FC591D491FC01E057FE4FA5911A
:100AE000B491611109C09FB7F89488812095822341
:100AF0008883EC912E230BC0623061F49FB7F89489
:100B00003881822F809583238883EC912E2B2C9320
:100B10009FBF06C08FB7F894E8812E2B28838FBF24
:100B2000DF91CF9108953FB7F8948091570190914C
:100B30005801A0915901B0915A0126B5A89B05C052
:100B40002F3F19F00196A11DB11D3FBFBA2FA92F4C
:100B5000982F8827820F911DA11DB11DBC01CD01C9
:100B600043E0660F771F881F991F4A95D1F70895B4
:100B70008F929F92AF92BF92CF92DF92EF92FF92AD
:100B80006B017C010E9493054B015C01C114D104EF
:100B9000E104F104F1F00E949305DC01CB01881916
:100BA0009909AA09BB09883E9340A105B10570F3D4
:100BB00021E0C21AD108E108F10888EE880E83E02E
:100BC000981EA11CB11CC114D104E104F10419F751
:100BD000DDCFFF90EF90DF90CF90BF90AF909F90D0
:100BE0008F9008958F929F92AF92BF92CF92DF9293
:100BF000EF92FF920F931F93CF93DF935C016B01F2
:100C00007A0180910B01882309F459C08091640115
:100C1000882309F454C08091610180FF05C0809150
:100C2000E00082608093E000E70110E00AEF83E0DB
:100C3000882E9AE3992E2097D1F10E940C0A8111F7
:100C400009C00150E1F161E070E080E090E00E94B5
:100C5000B805F1CF282F30E0C217D3070CF48C2F42
:100C60004FB7F8948092E9009091E80095FF1DC07D
:100C7000282F30E0C21BD30BF601982F915020F0A3
:100C800081918093F100FACFC20ED31E112319F087
:100C90009092E80009C08091E80085FD06C090921E
:100CA000E80011E0209709F010E04FBFC4CF111108
:100CB000C4CF84E680935F011E141F0444F081E0DA
:100CC00090E0F5019383828380E090E001C0C7014A
:100CD000DF91CF911F910F91FF90EF90DF90CF9018
:100CE000BF90AF909F908F9008951F920F920FB674
:100CF0000F9211242F933F938F939F93AF93BF93A2
:100D00008091530190915401A0915501B0915601E9
:100D10003091520126E0230F2D3720F40296A11DB9
:100D2000B11D05C029E8230F0396A11DB11D209315
:100D300052018093530190935401A0935501B093B5
:100D400056018091570190915801A0915901B0919D
:100D50005A010196A11DB11D80935701909358012E
:100D6000A0935901B0935A01BF91AF919F918F9178
:100D70003F912F910F900FBE0F901F9018950E94DA
:100D80000702BC01990F880B990B0E94450C20EDBE
:100D90003FE34FE75EE30E94010D0E94800C0E943A
:100DA0000D0CCB010895CF93DF93EC018BE291E022
:100DB0000E946309BE010D2E000C880B990B97FF52
:100DC00003C00E94BC0903C04AE00E947B0980E383
:100DD00091E00E9463098C2F0E940702BC01990FC9
:100DE000880B990B97FF03C00E94BC0903C04AE01F
:100DF0000E947B098FE391E00E946309CE010E946B
:100E0000BF06BC01990F880B990B97FF03C00E9486
:100E1000BC0903C04AE00E947B098EE491E0DF91A7
:100E2000CF910C94630990E0FC01EE5AFE4F44917F
:100E3000FC01EF58FE4F2491FC01E256FE4F8491D5
:100E4000882309F44DC04423E1F150E0FA013197C1
:100E5000EF30F105B0F5EA5AFF4F0C94B80D9091C0
:100E600080009F7707C0909180009F7D03C0909184
:100E70008000977F9093800024C094B59F7702C034
:100E800094B59F7D94BD1DC0909190009F7707C041
:100E9000909190009F7D03C090919000977F9093D8
:100EA00090000FC09091C0009F7703C09091C00048
:100EB0009F7D9093C00005C09091C200977F909352
:100EC000C200E82FF0E0EE0FFF1FE057FE4FA591A4
:100ED000B4918FB7F894EC9120952E232C938FBF6B
:100EE00008950F931F93CF93DF93CDB7DEB7299764
:100EF0000FB6F894DEBF0FBECDBF0E9493050091E0
:100F0000C3011091C4012091C5013091C601DC01DB
:100F1000CB01801B910BA20BB30B8C329140A1052E
:100F2000B10558F3F8948091B9019091BA019A8370
:100F30008983A091BD01B091BE01FD0131968C91D4
:100F400089878091B501A091C701B091C80188231C
:100F500009F473C11B82AB32B10509F058C09BB1D3
:100F60008091C901982B98879BB1809589238F83A5
:100F70008F818C83898587FF02C088858C83588503
:100F80006F8149853C812B8189819A815BB9262FAC
:100F90003BB900C046FD252F6BB900C05BB9362FA9
:100FA0002BB900C045FD352F6BB900C05BB9262FAA
:100FB0003BB900C044FD252F6BB900C05BB9362F8B
:100FC0002BB900C043FD352F6BB900C05BB9262F8C
:100FD0003BB900C042FD252F6BB900C05BB9362F6D
:100FE0002BB900C041FD352F6BB900C05BB9262F6E
:100FF0003BB900C040FD252F6BB901975BB9362F77
:101000002BB9419147FD352F6BB901F612C1A532BD
:10101000B10509F058C095B18091C901982B988706
:1010200095B1809589238F838F818C83898587FFF4
:1010300002C088858C8358856F8149853C812B81CE
:1010400089819A8155B9262F35B900C046FD252FD3
:1010500065B900C055B9362F25B900C045FD352FFB
:1010600065B900C055B9262F35B900C044FD252FFC
:1010700065B900C055B9362F25B900C043FD352FDD
:1010800065B900C055B9262F35B900C042FD252FDE
:1010900065B900C055B9362F25B900C041FD352FBF
:1010A00065B900C055B9262F35B900C040FD252FC0
:1010B00065B9019755B9362F25B9419147FD352FAF
:1010C00065B901F6B6C0A832B10509F058C098B1AB
:1010D0008091C901982B988798B1809589238F8337
:1010E0008F818C83898587FF02C088858C83588592
:1010F0006F8149853C812B8189819A8158B9262F3E
:1011000038B900C046FD252F68B900C058B9362F40
:1011100028B900C045FD352F68B900C058B9262F41
:1011200038B900C044FD252F68B900C058B9362F22
:1011300028B900C043FD352F68B900C058B9262F23
:1011400038B900C042FD252F68B900C058B9362F04
:1011500028B900C041FD352F68B900C058B9262F05
:1011600038B900C040FD252F68B9019758B9362F0E
:1011700028B9419147FD352F68B901F65AC0D1977A
:1011800009F08BC091B38091C901982B988791B3D6
:10119000809589238F838F818C83898587FF02C007
:1011A00088858C8358856F8149853C812B81898115
:1011B0009A8151BB262F31BB00C046FD252F61BB54
:1011C00000C051BB362F21BB00C045FD352F61BB90
:1011D00000C051BB262F31BB00C044FD252F61BB91
:1011E00000C051BB362F21BB00C043FD352F61BB72
:1011F00000C051BB262F31BB00C042FD252F61BB73
:1012000000C051BB362F21BB00C041FD352F61BB53
:1012100000C051BB262F31BB00C040FD252F61BB54
:10122000019751BB362F21BB419147FD352F61BB43
:1012300001F649873C832B832EC09C918091C90184
:10124000982B98879C91809589238F838F818E839B
:1012500088E08D8358856F8149853D812E81898104
:101260009A815C9347FD252F2C93262F3A9531F0D8
:10127000441F6C9300C000C000C0F3CF6C9300000B
:1012800038E04191019769F7B093C801A093C70175
:1012900049873D832E839A83898378940E9493059E
:1012A0006093C3017093C4018093C5019093C601FC
:1012B00029960FB6F894DEBF0FBECDBFDF91CF9158
:1012C0001F910F910895BC01009791F0FC010190CE
:1012D0000020E9F73197AF01481B590BE0916501F8
:1012E000F09166010280F381E02D85E691E009949A
:1012F00080E090E008958F929F92AF92BF920F93FB
:101300001F93CF93DF93CDB7DEB7A1970FB6F894B5
:10131000DEBF0FBECDBF19A2423008F44AE08E01F5
:101320000F5D1F4F842E912CA12CB12CA50194018F
:101330000E94960DE62FB901CA0101501109EA3049
:1013400014F4E05D01C0E95CD801EC93232B242B5D
:10135000252B61F7C8010E946309A1960FB6F89486
:10136000DEBF0FBECDBFDF91CF911F910F91BF9018
:10137000AF909F908F900895CF92DF92EF92FF925F
:10138000CF93DF936B017C01E0916501F0916601E1
:101390000190F081E02D6DE285E691E00995EC0188
:1013A00066277727CB016C197D098E099F094AE0D2
:1013B0000E947B098C0F9D1FDF91CF91FF90EF90D2
:1013C000DF90CF900895FC0180916401811103C0EA
:1013D0008FEF9FEF08959FB7F89482E08093E90024
:1013E0002091F20030E01216130614F421E030E0F0
:1013F0002115310551F084E6809363018091F1005D
:1014000080838091F200882319F09FBFC90108955D
:101410008BE68093E800F9CF2FB7F89483E08093B0
:10142000E9009091E800892F807295FF04C09091A7
:10143000F20080E4891B2FBF08958091CE018111B5
:101440000DC082E08093CA0184E08093CB011092AA
:10145000CD011092CC0181E08093CE018AEC91E025
:1014600008958091BD019091BE01009711F00E94F6
:10147000530E8091BB0187FD03C060E00C945705BB
:101480000895109268011092670188EE93E0A0E041
:10149000B0E08093690190936A01A0936B01B093CF
:1014A0006C018DE191E090936601809365018FEF6F
:1014B0009FEF90937201809371011092B601109288
:1014C000BC011092C3011092C4011092C501109288
:1014D000C60181E08093C2018093BF011092C001D8
:1014E00092E09093C1018093B5018FE090E09093DA
:1014F000BA018093B9010E94BE0D9093BE01809302
:10150000BD01009761F02FE0FC0111922A95E9F7E7
:1015100085E090E09093B8018093B70108C01092E5
:10152000BA011092B9011092B8011092B70189E086
:101530008093BB018091B601882339F061E089E096
:101540000E94570589E00E941307E7EAF1E0E49161
:10155000F0E0EE0FFF1FE057FE4F859194919093BE
:10156000C8018093C701EAE7F1E0E491E093C90183
:101570000895789484B5826084BD84B5816084BD0B
:1015800085B5826085BD85B5816085BD80916E0021
:10159000816080936E001092810080918100826052
:1015A000809381008091810081608093810080918F
:1015B00080008160809380008091910082608093A0
:1015C00091008091910081608093910080919000C2
:1015D0008160809390008091C10084608093C100FD
:1015E0008091C10082608093C1008091C1008160C0
:1015F0008093C1008091C30081608093C30080917B
:10160000C00082608093C0008091C200816080939E
:10161000C20080917A00846080937A0080917A0081
:10162000826080937A0080917A008E7F80937A0026
:1016300080917A00806880937A0010926401109201
:101640006201109261018091D70081608093D70080
:1016500080EA8093D80089B58F7E89BD89B5826084
:1016600089BD09B400FEFDCF61E070E080E090E04C
:101670000E94B8058091D8008F7C80618093D8004B
:101680008091E000807F8093E0008091E1008E7E79
:101690008093E1008DE08093E200EEEFFFE785911B
:1016A00094918B3F9C4D19F481E0809360018FEF02
:1016B0009FEF90937201809371018091BB0187FD30
:1016C00007C061E00E9457058091BB010E9413078B
:1016D00081E08093B6018091BD019091BE01892B7C
:1016E00011F00E94710730E0A32E30E0B32E83E1A9
:1016F00090E00E94D30684E190E00E94D30685E149
:1017000090E00E94D30668EE73E080E090E00E94D3
:10171000B80585E190E00E94BF06C82F84E190E003
:101720000E94BF06482E83E190E00E94BF06512C24
:10173000612C712C762C652C542C4424682A4C2A5C
:10174000830122273327952C302EE12CF12CC12C3C
:10175000D12CC0E0D0E0842C8091B7019091B801E9
:10176000C817D907D0F5282D8091BC01882371F0C6
:10177000809F9001819F300D1124432F989E9001EE
:101780001124489EC0011124292F02C0392D432D58
:101790005091C2016091BF018091BD019091BE0145
:1017A000561303C08C0D9D1D06C08E0D9F1DFC01A0
:1017B000E50FF11D10825091BF01FC01E50FF11DF5
:1017C00040834091C001FC01E40FF11D3083309152
:1017D000C101FC01E30FF11D20838091BD019091B7
:1017E000BE01892B11F00E94710764EF71E080E067
:1017F00090E00E94B805219683E0C80ED11C24E039
:10180000E20EF11CC530D10509F0A6CFA114B10438
:1018100009F46DCF0E9400006ACF0E94140C6894F6
:10182000B1110C94FB0C08950E94C80C88F09F57CE
:1018300098F0B92F9927B751B0F0E1F0660F771FF4
:10184000881F991F1AF0BA95C9F714C0B13091F0EA
:101850000E94FA0CB1E008950C94FA0C672F782FCF
:101860008827B85F39F0B93FCCF3869577956795AF
:10187000B395D9F73EF490958095709561957F4F1B
:101880008F4F9F4F0895E89409C097FB3EF49095C1
:101890008095709561957F4F8F4F9F4F9923A9F049
:1018A000F92F96E9BB279395F695879577956795D8
:1018B000B795F111F8CFFAF4BB0F11F460FF1BC01C
:1018C0006F5F7F4F8F4F9F4F16C0882311F096E9AF
:1018D00011C0772321F09EE8872F762F05C066235D
:1018E00071F096E8862F70E060E02AF09A95660F16
:1018F000771F881FDAF7880F9695879597F90895CF
:101900000E94E20C90F09F3748F4911116F00C946D
:10191000FB0C60E070E080E89FEB089526F41B1656
:10192000611D711D811D0C94970C0C94B20C8823C1
:1019300071F4772321F09850872B762F07C0662308
:1019400011F499270DC09051862B70E060E02AF0C9
:101950009A95660F771F881FDAF7880F96958795F7
:1019600097F908959F3F31F0915020F4879577952E
:101970006795B795880F911D9695879597F9089566
:1019800057FD9058440F551F59F05F3F71F0479530
:10199000880F97FB991F61F09F3F79F08795089515
:1019A000121613061406551FF2CF4695F1DF08C034
:1019B000161617061806991FF1CF86957105610551
:1019C000089408950E94C80CA0F0BEE7B91788F4E7
:1019D000BB279F3860F41616B11D672F782F882714
:1019E000985FF7CF869577956795B11D9395963952
:1019F000C8F30895E894BB2766277727CB0197F9AA
:101A000008950E94140D0C94850D0E94770D38F0F6
:101A10000E947E0D20F0952311F00C946E0D0C9415
:101A2000740D11240C94FB0C0E94C00C70F3959F54
:101A3000C1F3950F50E0551F629FF001729FBB27C5
:101A4000F00DB11D639FAA27F00DB11DAA1F649F61
:101A50006627B00DA11D661F829F2227B00DA11D14
:101A6000621F739FB00DA11D621F839FA00D611D9A
:101A7000221F749F3327A00D611D231F849F600DBB
:101A8000211D822F762F6A2F11249F5750409AF0E4
:101A9000F1F088234AF0EE0FFF1FBB1F661F771F70
:101AA000881F91505040A9F79E3F510580F00C943B
:101AB0006E0D0C94FB0C5F3FE4F3983ED4F38695D7
:101AC00077956795B795F795E7959F5FC1F7FE2BDB
:101AD000880F911D9695879597F9089597F99F67B7
:101AE00080E870E060E008959FEF80EC08950024A6
:101AF0000A941616170618060906089500240A9473
:101B000012161306140605060895092E0394000CF8
:101B100011F4882352F0BB0F40F4BF2B11F460FF87
:101B200004C06F5F7F4F8F4F9F4F0895A1E21A2E21
:101B3000AA1BBB1BFD010DC0AA1FBB1FEE1FFF1F71
:101B4000A217B307E407F50720F0A21BB30BE40BC1
:101B5000F50B661F771F881F991F1A9469F7609508
:101B60007095809590959B01AC01BD01CF010895C2
:101B7000EE0FFF1F0590F491E02D0994CF93DF93B2
:101B80008230910510F482E090E0E091D801F0916C
:101B9000D90120E030E0C0E0D0E0309711F1408181
:101BA000518148175907C0F04817590761F48281DD
:101BB0009381209719F09B838A832BC09093D9013E
:101BC0008093D80126C02115310519F0421753071B
:101BD00018F49A01BE01DF01EF010280F381E02DCC
:101BE000DCCF2115310509F1281B390B24303105D3
:101BF00090F412968D919C9113976115710521F0C7
:101C0000FB019383828304C09093D9018093D80110
:101C1000FD01329644C0FD01E20FF31F81939193C1
:101C2000225031092D933C933AC02091D601309136
:101C3000D701232B41F420910E0130910F013093F5
:101C4000D7012093D60120910C0130910D0121156F
:101C5000310541F42DB73EB740911001509111016B
:101C6000241B350BE091D601F091D701E217F30761
:101C7000A0F42E1B3F0B2817390778F0AC014E5FFC
:101C80005F4F2417350748F04E0F5F1F5093D70161
:101C90004093D6018193919302C0E0E0F0E0CF0140
:101CA000DF91CF9108950F931F93CF93DF93009708
:101CB00009F48CC0FC013297138212820091D80182
:101CC0001091D9010115110581F420813181820F14
:101CD000931F2091D6013091D7012817390779F544
:101CE000F093D701E093D60171C0D80140E050E0F5
:101CF000AE17BF0750F412962D913C911397AD018A
:101D00002115310509F1D901F3CF9D01DA013383A2
:101D1000228360817181860F971F8217930769F470
:101D2000EC0128813981260F371F2E5F3F4F318309
:101D300020838A819B8193838283452B29F4F093AE
:101D4000D901E093D80142C01396FC93EE93129709
:101D5000ED01499159919E01240F351FE217F307B8
:101D600071F480819181840F951F029611969C9346
:101D70008E938281938113969C938E931297E0E0C9
:101D8000F0E0D80112968D919C911397009719F06D
:101D9000F8018C01F6CF8D919C9198012E5F3F4FF9
:101DA000820F931F2091D6013091D7012817390750
:101DB00069F4309729F41092D9011092D80102C029
:101DC000138212821093D7010093D601DF91CF9135
:101DD0001F910F91089581E090E0F8940C94F00E1B
:101DE00010E0C0EED0E004C0FE010E94B80D2196C4
:0A1DF000C13ED107C9F7F894FFCFF8
:101DFA00FFFFFFFF00E10000000000000000DA0121
:101E0A00800000C1808100000000000000C801F2CB
:101E1A00056602DE01E9018E026A0250696E20003F
:101E2A0020776974682072656164696E6720002092
:101E3A00616E642076616C7565206F6620000D0AFC
:021E4A00000096
:1070000055C000006EC000006CC000006AC00000E7
:1070100068C0000066C0000064C0000062C00000DC
:1070200060C000005EC00000DAC400005AC000006A
:1070300058C0000056C0000054C0000052C00000FC
:1070400050C0000076C000004CC000004AC00000E4
:1070500048C0000046C0000044C0000042C000001C
:1070600040C000003EC000003CC000003AC000002C
:1070700038C0000036C0000034C0000032C000003C
:1070800030C000002EC000002CC000002AC000004C
:1070900028C0000026C0000024C0000022C000005C
:1070A00020C000001EC000001CC0000011241FBE34
:1070B000CFEFDAE0DEBFCDBF11E0A0E0B1E0EEEF50
:1070C000FEE702C005900D92AA3CB107D9F711E086
:1070D000AAECB1E001C01D92A03EB107E1F781D357
:1070E0000CC78ECFF89410926F001092810010920E
:1070F00085001092840081E085BF15BE47980C94EE
:10710000000008952091D4013091D5012F5F3F4FA9
:107110003093D5012093D401932F37FF03C08EEF16
:10712000831B982F990F921710F447980895479A48
:1071300008951F920F920FB60F9211242F938F93E1
:107140009F93EF93FF93109285001092840080919B
:10715000CA019091CB01009729F001979093CB0140
:107160008093CA018091CC019091CD01009729F0C4
:1071700001979093CD018093CC01E0E0F0E0859100
:1071800094918F5F9F4F49F08091CE019091CF01F4
:1071900001969093CF018093CE01FF91EF919F9143
:1071A0008F912F910F900FBE0F901F90189584E034
:1071B0008093E9000DC08091E8008B778093E80010
:1071C00003C08EB3882351F08091E80082FFF9CF8D
:1071D0008091E80085FFEFCF8091F1000895982F0E
:1071E00083E08093E9008091E80085FD0DC08091E7
:1071F000E8008E778093E80003C08EB3882361F0A7
:107200008091E80080FFF9CF9093F10084E690E050
:107210009093CB018093CA0108954F925F926F9231
:107220007F928F929F92AF92BF92CF92DF92EF9216
:10723000FF920F931F93CF93DF9384E08093E90035
:107240008091E80082FF56C284E690E09093CD01E1
:107250008093CC01ACDF182F853481F48CE195E26A
:107260009093CF018093CE0107B600FCFDCFF99932
:10727000FECF81E180935700E89503C0843519F46F
:1072800096DF8DE00DC28C34E1F38035D1F3843785
:1072900021F484E4A4DF80E003C2813611F489E59F
:1072A000FFC18134B1F483DF182F81DF90E0880FB4
:1072B000991FAA2797FDA095BA2F312F330F20E0F1
:1072C000442737FD4095542F822B932BA42BB52BAD
:1072D000B8C1803711F483E5E3C1833549F4C0E0D8
:1072E000D1E089917CDF21E0C730D207D1F7D9C145
:1072F000863521F481E373DF80E3D2C1833731F433
:1073000087E86DDF85E96BDF8EE1CAC18536B9F4A8
:10731000E0E0F0E093E085E090935700E89507B651
:1073200000FCFDCF80935700E89507B600FCFDCF29
:10733000E058FF4FA0E7E030FA0771F7A2CF82379D
:1073400039F4E1E0F0E089E0809357008491A8C12E
:10735000863439F4E0E0F0E089E0809357008491CE
:107360009FC18E3439F4E3E0F0E089E08093570068
:10737000849196C1813539F4E2E0F0E089E08093B0
:10738000570084918DC1823631F489E528DF80E091
:1073900026DF80E885C1823419F0873609F0E5C020
:1073A0001092CF011092CE0102DF082F00DFF82EDD
:1073B000FEDE682E8554823008F071C1902F80E087
:1073C000CF2DD0E0C82BD92B10926F00173609F0C3
:1073D0004BC081E180935700E895DD24CC24C39411
:1073E0003FC0E090D001F090D1010091D201109106
:1073F000D301B6E46B16D9F4ED2DF0E0EE29FF29A8
:10740000E4918E2FECDEDD2081F082E090E0A0E0C0
:10741000B0E0E80EF91E0A1F1B1FE092D001F092A7
:10742000D1010093D2011093D301DC2418C0D801FC
:10743000C701B695A7959795879549D5D0DE82E087
:1074400090E0A0E0B0E0E80EF91E0A1F1B1FE092DA
:10745000D001F092D1010093D2011093D301219772
:10746000209709F0BECF7DC08090D0019090D101CF
:10747000A090D201B090D30196E4691609F05DC0E6
:1074800083E0F40180935700E89507B600FCFDCF38
:1074900054C0F6E46F1661F5772031F1E090D00129
:1074A000F090D1010091D2011091D30180DED82E4D
:1074B000CC24852D90E08C299D29F7010C01409268
:1074C0005700E895112482E090E0A0E0B0E0E80EDB
:1074D000F91E0A1F1B1FE092D001F092D101009308
:1074E000D2011093D30102C062DE582E742423C04F
:1074F000E090D001F090D1010091D2011091D30120
:1075000016950795F794E79452DE682FC701E7D4E4
:107510008091D0019091D101A091D201B091D3017D
:107520000296A11DB11D8093D0019093D101A0932B
:10753000D201B093D301219704C055247724442469
:107540004394209709F0A5CF96E4691641F485E0AD
:10755000F40180935700E89507B600FCFDCF8DE05D
:107560003EDE82E080936F009CC0833471F4009112
:10757000D0011091D1011BDE90E021E0F8010C0157
:1075800020935700E89511247CCE833619F5E090BE
:10759000D001F090D1010091D2011091D30107DE0A
:1075A000F701E16090E021E00C0120935700E8959D
:1075B000112482E090E0A0E0B0E0E80EF91E0A1F7E
:1075C0001B1FE092D001F092D1010093D2011093E1
:1075D000D30157CE8D3661F4E091D001F091D10105
:1075E00085E080935700E89507B600FCFDCF49CEB3
:1075F000823551F4E091D001F091D10105911491BF
:10760000812FEDDD802F4CC0843421F5E090D00136
:10761000F090D1010091D2011091D30116950795F8
:10762000F794E794C4DD682FC70159D48091D00145
:107630009091D101A091D201B091D3010296A11DE8
:10764000B11D8093D0019093D101A093D201B0934A
:10765000D30117CE843609F5E090D001F090D10126
:107660000091D2011091D301D801C701B695A79519
:10767000979587952CD4B3DD82E090E0A0E0B0E050
:10768000E80EF91E0A1F1B1FE092D001F092D101F3
:107690000093D2011093D30104C08B3111F08FE31A
:1076A0009EDD83E08093E9009091E8008091E800FE
:1076B0008E778093E80095FF04C010C08EB38823B6
:1076C000C9F08091E80080FFF9CF8091E8008E77C3
:1076D0008093E80003C08EB3882361F08091E800B6
:1076E00080FFF9CF84E08093E9008091E8008B77F8
:1076F0008093E800DF91CF911F910F91FF90EF9061
:10770000DF90CF90BF90AF909F908F907F906F90C1
:107710005F904F9008959091D801892F8F77813293
:1077200049F58091D9018032A1F0813219F5913A61
:1077300009F58091E800877F8093E8008DE091E073
:1077400067E070E0FBD18091E8008B778093E800E0
:107750000895913279F48091E800877F8093E80062
:107760008DE091E067E070E04DD28091E8008E7787
:107770008093E800089582E061EC42E0A7D083E0C6
:1077800061E842E1A3D084E060E842E19FC084B7B1
:10779000877F84BF88E10FB6F894809360001092D1
:1077A00060000FBE20E880E090E00FB6F8942093D0
:1077B0006100809361000FBE81E085BF92E095BFBC
:1077C0003F9AE1E6F0E0208310824798109289000A
:1077D0008DE78093880090936F0083E08093810011
:1077E000E6C04091000850910108109201081092E3
:1077F000000824B714BE88E10FB6F89480936000A7
:10780000109260000FBEE0E0F0E0859194918F5FF0
:107810009F4F71F020FD0BC021FD0AC0283041F4BC
:107820008091090190910A014817590709F05ADC23
:10783000AEDF78941092CF011092CE010CC0EDDC37
:1078400034D38091CE019091CF018151974210F0B5
:107850001092140157DC80911401882381F78091E4
:10786000E00081608093E0003DDC80E090E00895DE
:10787000FA01923049F0933061F09130F9F485E1EA
:1078800091E022E130E01EC087E291E02EE330E09B
:1078900019C0882329F485E691E024E030E012C085
:1078A000813029F489E691E022E230E00BC0823099
:1078B00029F487E991E028E130E004C080E090E01D
:1078C00020E030E091838083C90108958093E9002E
:1078D0008091EB0081608093EB001092ED0060934B
:1078E000EC004093ED008091EE00881F8827881FF0
:1078F00008958091D80188238CF403C08EB3882327
:10790000B1F08091E80082FFF9CF8091E8008B7799
:107910008093E80008958EB3882349F08091E800B1
:1079200080FFF9CF8091E8008E778093E80008957A
:10793000EF92FF920F931F9345D04CD008ED10E0CB
:10794000F80180818F778083808180688083808147
:107950008F7D808319BC1EBA1092D60180EEE82E6E
:10796000F12CF70180818B7F8083F8018081816019
:10797000808380E060E042E0A9DFE1EEF0E080811A
:107980008E7F8083E2EEF0E0808181608083808161
:1079900088608083F70180818E7F8083F8018081F9
:1079A000806180831F910F91FF90EF900895E7ED24
:1079B000F0E08081816080838AE482BF81E08093EF
:1079C000D701B6CFE8EDF0E080818E7F8083109202
:1079D000E20008951092DA001092E10008951F92DB
:1079E0000F920FB60F9211242F933F934F935F93F3
:1079F0006F937F938F939F93AF93BF93EF93FF9377
:107A00008091DA0080FF1AC08091D80080FF16C0F4
:107A10008091DA008E7F8093DA008091D90080FF18
:107A20000AC019BC82E089BD09B400FEFDCF81E027
:107A30008EBB3AD203C019BC1EBA36D28091E10087
:107A400080FF17C08091E20080FF13C08091E200A8
:107A50008E7F8093E2008091E20080618093E2005B
:107A60008091D80080628093D80019BC85E08EBBDD
:107A70001BD28091E10084FF2BC08091E20084FF43
:107A800027C019BC82E089BD09B400FEFDCF8091FA
:107A9000D8008F7D8093D8008091E1008F7E809305
:107AA000E1008091E2008F7E8093E2008091E2000D
:107AB00081608093E2008091D601882331F4809127
:107AC000E30087FD02C081E001C084E08EBBECD101
:107AD0008091E10083FF21C08091E20083FF1DC0FF
:107AE0008091E100877F8093E10082E08EBB10925D
:107AF000D6018091E1008E7F8093E1008091E200C9
:107B00008E7F8093E2008091E20080618093E200AA
:107B100080E060E042E0DADEC7D1FF91EF91BF91F3
:107B2000AF919F918F917F916F915F914F913F9115
:107B30002F910F900FBE0F901F9018959C014091B0
:107B4000DE015091DF014617570718F4F90190E064
:107B500044C06115710511F0AB01F8CF8091E800C8
:107B60008E778093E80040E050E0F0CF8EB388231A
:107B700009F444C0853009F443C08091E80083FFD4
:107B800002C081E008958091E80082FD31C08091BB
:107B9000E80080FF22C08091F3009091F200782FDE
:107BA00060E0292F30E0262B372B07C0819180938E
:107BB000F100415050402F5F3F4F4115510519F0E2
:107BC0002830310598F390E02830310509F491E030
:107BD0008091E8008E778093E8004115510531F6D9
:107BE000992321F605C08EB3882341F0853041F0FA
:107BF0008091E80082FFF7CF80E0089582E0089549
:107C000083E008959C016115710529F48091E800D5
:107C10008B778093E800F90126C08EB3882391F119
:107C2000853091F18091E80083FF02C081E00895E2
:107C30008091E80082FFF1CF06C08091F10081932E
:107C40006150704059F02091F3008091F200322F82
:107C500020E090E0822B932B892B79F78091E8002C
:107C60008B778093E80061157105B9F605C08EB376
:107C7000882341F0853041F08091E80080FFF7CF04
:107C800080E0089582E0089583E008950F931F93A4
:107C9000DF93CF9300D0CDB7DEB7E8EDF1E0809170
:107CA000F100819381E0E03EF807C9F734DD80916F
:107CB000E80083FFE4C08091D8019091D90195300C
:107CC00009F46DC0963040F4913081F1913070F03C
:107CD000933009F0D4C02AC0983009F4A3C0993079
:107CE00009F4B2C0963009F0CAC07CC0803809F4EB
:107CF000C6C0823809F0C3C08091DC0187708093D0
:107D0000E9008091EB001092E9002091E800277FC4
:107D10002093E80090E025E0969587952A95E1F775
:107D200081708093F1001092F10087C0882319F0D0
:107D3000823009F0A4C08F71823009F0A0C0809118
:107D4000DA01882331F52091DC01277009F497C00E
:107D50002093E9008091EB0080FF1BC0933021F459
:107D60008091EB00806213C08091EB008061809372
:107D7000EB0081E090E002C0880F991F2A95E2F79E
:107D80008093EA001092EA008091EB008860809373
:107D9000EB001092E9008091E800877F51C08823B2
:107DA00009F06DC01091DA011F770FB7F894809138
:107DB000E800877F8093E8009CDD8091E80080FFE9
:107DC000FCCF8091E3008078812B8093E300806872
:107DD0008093E300112311F482E001C083E08EBBA5
:107DE0000FBF4DC08058823008F049C08091DA0141
:107DF0009091DB016091DC01AE014F5F5F4F38DD98
:107E0000BC01009709F43BC08091E800877F809314
:107E1000E80089819A8192DE8091E8008B778093D7
:107E2000E8002DC0803859F58091E800877F809365
:107E3000E8008091D6018093F1008091E8008E7770
:107E40008093E80056DD1BC08823C9F49091DA01C5
:107E50009230A8F48091E800877F8093E8009093A7
:107E6000D60147DD8091D601882331F48091E3006B
:107E700087FD02C081E001C084E08EBB7CDC809184
:107E8000E80083FF0AC08091EB0080628093EB00E2
:107E90008091E800877F8093E8000F900F90CF914A
:107EA000DF911F910F91089508951F938EB388233A
:107EB00061F01091E9001092E9008091E80083FFE1
:107EC00001C0E4DE17701093E9001F910895F9993D
:107ED000FECF92BD81BDF89A992780B50895262FCF
:107EE000F999FECF1FBA92BD81BD20BD0FB6F8949F
:0E7EF000FA9AF99A0FBE01960895F894FFCF02
:107EFE004341544552494E41007777000800000037
:107F0E00000000080112011001020000089A230C63
:107F1E000001000201000109023E00020100803250
:107F2E0009040000010202010005240010010424CE
:107F3E0002040524060001070582030800FF090458
:107F4E000100020A000000070504021000010705E7
:107F5E00830210000104030904220341006400613E
:107F6E00006600720075006900740020004600650E
:107F7E00006100740068006500720020003300325A
:107F8E0000750034000000180341006400610066B3
:107F9E00007200750069007400200049006E0064D4
:107FAE000075007300740072006900650073002094
:0A7FBE00004C004C004300000000DE
:040000030000700089
:00000001FF
